:020000040000fa
:10000000f0ff032059510000ed620000f362000090
:10001000ff620000056300000b63000000000000a9
:100020000000000000000000000000005317000066
:10003000f962000000000000531700005317000091
:100040005317000053170000531700005317000008
:1000500053170000531700005317000053170000f8
:1000600053170000531700005317000053170000e8
:1000700053170000531700005317000053170000d8
:1000800053170000531700005317000053170000c8
:1000900053170000531700005317000053170000b8
:1000a00053170000531700005317000053170000a8
:1000b0005317000053170000531700005317000098
:1000c0005317000053170000531700005317000088
:1000d0005317000053170000531700005317000078
:1000e000531700005317000000000000000000003c
:1000f00000000000531700005317000053170000c2
:100100005317000053170000531700005317000047
:100110005317000053170000f1320000f1320000c5
:10012000f1320000f13200005517000055170000b1
:100130005517000055170000531700005317000013
:100140005317000053170000531700005317000007
:1001500053170000531700005317000053170000f7
:100160005317000053170000811900008119000087
:100170008119000081190000531700005317000077
:1001800053170000531700005317000053170000c7
:1001900053170000531700005317000053170000b7
:1001a00053170000531700005317000053170000a7
:1001b0005317000053170000531700005317000097
:1001c0005317000053170000531700005317000087
:1001d0005317000053170000531700005317000077
:1001e000531700005317000053170000f951000087
:1001f0005317000053170000531700005317000057
:100200005317000053170000531700005317000046
:100210005317000053170000531700005317000036
:100220005317000053170000531700005317000026
:100230005317000053170000531700005317000016
:100240005317000053170000531700005317000006
:1002500053170000531700005317000053170000f6
:040260005317000030
:020000040000fa
:10026400f8b500bff8bc08bc9e467047fd550000b9
:10027400f8b500bff8bc08bc9e467047d9550000cd
:020000040000fa
:08028400d40f0000010000008e
:020000040000fa
:04028c0004f0ecbbd3
:020000040000fa
:100290002de9f04f2ded028bd2e9008997b0cde921
:1002a0000c138b6808930b690f90d1e900b6149377
:1002b000cd68002200234046494605f049fb40b97d
:1002c0001bf0040f32d11bf00803059330d020231c
:1002d00003e089f0004399462d232b70089b03f11e
:1002e000ff3a012305934c4929f0004300208b423b
:1002f00008bf80451fd10d9b413b192b059b94bf27
:10030000464947492b44184605f0d6ff284605f0d4
:1003100089ffcdf800b00246089b0f98294603f0ec
:1003200099ff17b0bdec028bbde8f08f2b23d4e70b
:10033000ddf820a0d7e7994208bf404509d20d9bc0
:10034000413b192b059b94bf364937492b4418462e
:10035000dae7002200234046494605f047fb9fedbf
:100360002c7b8ded027b48b300240d9805f096ffa1
:10037000002ec3b20993c0f2e781672b5ad1002e39
:1003800008bf0126231d02dbb442c0f2ca816527e3
:1003900061e09ded067b8ded027b01340022234b55
:1003a000dde9020102f08cfb42464b46cde9060135
:1003b00005f0b2fa0028ecd000271fe00446ede774
:1003c00014f5967f11da87b90022194b4046494649
:1003d00002f076fb002280468946154bdde90201da
:1003e00002f06efbcde902010127dde902010022e6
:1003f0000e4b01f0dbfbcde90201013cdde90223fc
:100400004046494605f0a4fa0028d9d1ade700bf1f
:10041000000000000000f03f0000f07f5462000088
:10042000586200005c62000060620000000024402e
:1004300000005043099f662f06f101060bd1002ce6
:1004400004da9fedbb7b8ded027b0024099b672bbb
:1004500018bf361966279ded027bcde906898ded23
:100460000a7b00230e93dde90a23dde9060101f092
:100470009dfb41ec100b03f017f851ec100bb0eea4
:10048000408af0ee608a04f003ffb0ee480af0ee16
:10049000680a069b1093079b159083f00043119305
:1004a0009ded0a1b9ded102b05f054fc53ec102b19
:1004b00083f000430793dde90a01a14b8ded060aa5
:1004c000002201f073fb0e9b01339e42cde90a012d
:1004d0000e93c8d100229b4b02f0f2facde90a013b
:1004e00002460b46dde9060105f032fa002840f02d
:1004f0008580dde90a23dde9060105f077fa10b110
:10050000159bda077ad5dde90a234046494601f012
:1005100001f80022cde90601894bdde9020102f074
:10052000cffadde90623cde90a0105f011f900282b
:1005300069d0662f04f1010469d10136a146a9eb07
:10054000060310934ff000080bf01003059ecdf842
:1005500008801593109b994540f08380029b002be7
:1005600000f0c9800022652f05eb0600aa5529d1ad
:10057000149b1499013b9442ea54c1f1030ebcbf91
:10058000644201220a21002c40f0bc800eeb030cd7
:10059000bcf1000f00f3b680002a03f1ff3114bf55
:1005a0002d222b226a540d9a413a023b192a98bff8
:1005b00045279e4205eb0301ef54aaf1020a01da36
:1005c00005f07afe0bf00303022b7ff49faebaf125
:1005d000000f7ff79bae284605f024fe05eb0a03cb
:1005e000059a824240f39980059b2b441846524657
:1005f000302105f00ffe0023089387e69fed4e7b28
:100600008ded0a7b7fe79ded027b8ded0a7b652feb
:1006100014bfa1464ff0000991e7029a52b9b9f10f
:10062000000f07da0e992e226a54012201360af1d0
:10063000ff3a029205eb0801aa19314403e04ff09a
:10064000300002f8010b9142f9d108eb0602303379
:10065000aaeb080808f1ff3a561cab544ff000080b
:1006600027e00c9b0e961b69053bb3427ff676afe5
:10067000dde90a23dde9060101f098fa41ec100bef
:1006800002f012ff51ec100bb0ee408af0ee608adf
:1006900004f0fefd159a09280346a8bf092302436a
:1006a000bbd1099a672ab8d1b9f1000fc2da08f1b3
:1006b0000108069b1293079bb0ee480af0ee680a09
:1006c00083f0004313939ded0a1b9ded122b05f063
:1006d00041fb53ec102b83f000430793dde90a0143
:1006e0000022174b8ded060a01f060fa09f1ff397f
:1006f000cde90a012ee71bf0100f1ebf2e23ab55cc
:1007000001362fe7b4fbf1fc013b01fb1c44303404
:10071000ec540af1ff3a644635e72a5c1a54013872
:100720005ee7002cbff696ae662784e6062629e62d
:10073000000000000000f03f00000000000000008a
:100740000000244000001440099b672beed01f4698
:04075000062670e623
:020000040000fa
:0407540000207047ca
:020000040000fa
:100758002de9f04f95b0cde912030b68089392ed9f
:10076800007b4b680a938b6809930b690d93cc68df
:100778000022002351ec170b8ded047b05f0e4f803
:1007880040b9089b580734d4089b13f0080732d0a7
:10079800202306e0dde9042181f00043cde90423ac
:1007a8002d232370099b01275a1edde90403dff876
:1007b800f8b223f000414ff0000a594508bf5045f0
:1007c8001bd1139b413b192b04eb070094bfb04985
:1007d800b04905f06dfdaf4805f020fd089b00937a
:1007e8000246099b1298214603f030fd15b0bde87a
:1007f800f08f2b23d5e7099ad7e7139b8b45a3f1f5
:10080800410308bf82450b9309d2192b04eb07005b
:1008180094bfa149a14905f04bfda048dce7302170
:10082800e1550b997b1c1a2934bf58217821e154d2
:10083800931e079300220023dde90401023705f027
:10084800d1f8002800f07b819fed8f7b8ded027b36
:1008580000260a9bdde90289002bdde904abb8bf5d
:1008680018230e93002542464b465046594601f040
:1008780099f941ec100b02f013fe42464b4651ec3d
:10088800100b8ded100b02f017f902460b4650467f
:10089800594605f01ffd824b82468b464046494625
:1008a800002202f009f96b1c0c930a9b002b80466e
:1008b800894606da002200235046594605f092f888
:1008c80028b90e9bab4200f3408101330c93002200
:1008d800744b4046494602f0eff880468946024686
:1008e8000b465046594605f02ff8002840f02f8156
:1008f80042464b465046594605f074f830b1dde99a
:10090800100104f0c1fcc10740f1218142464b4669
:10091800dde9040100f0fafdcde90401dde9042177
:1009280021f00043604900208b4208bf82423ff417
:1009380048af4ff000083d46c246c1460d9b053bf7
:10094800ab42ab4633d9dde90223dde9040101f00e
:1009580029f941ec100b02f0a3fd51ec100b8dedc1
:100968000e0b04f091fc002840f0f680b9f1000f5e
:1009780000f0f28008f10108dde90223dde90e014b
:1009880002f09af802460b46dde9040105f0a2fce4
:10099800434bcde904010022dde9020102f08cf8a5
:1009a8000c9b09f101094b45cde90201c6d1baf109
:1009b800000f1dd1b8f1000f00f015810a9b002b24
:1009c80040f31181089bda0700f10d812e2308eb13
:1009d8000502635522446319302103f8011f9a4226
:1009e800fbd1079b45446fea080843440135079348
:1009f8000d9b0d990022013b9642625504eb0500c0
:100a0800e254bcbf76420122c1f1020e4ff00a083f
:100a1800002e40f0d8800eeb030cbcf1010f00f063
:100a2800d280002a03f1ff3114bf2d222b226254f9
:100a38000b9a023b1a2a34bf502270229d4204ebc3
:100a48000301e25401da05f033fc089b03f00303c9
:100a5800022b14d1079ba3f10208b8f1000f0edd99
:100a6800204605f0dbfb04eb0803b84280f2b780b0
:100a780042463021e01905f0c9fb002309932046be
:100a8800aae600bfaff30080000000000000f03fbe
:100a980044620000486200004c620000506200009e
:100aa8000000b03f000020400000f07fcde902893f
:100ab8000136dde902231046194600f027fd80467d
:100ac800894602460b46dde9040104f03dff002893
:100ad800ecd0dff82cb1dff82c914ff0000a4ff082
:100ae8000008dde90223dde9040104f02dff0028f8
:100af8003ff4afae52465b46dde9020101f0dcff90
:100b08000022002304f06eff78b142464b46dde92f
:100b1800020101f0d1ff4246cde902014b46dde971
:100b2800040101f0c9ffcde90401dde902015246e3
:100b38005b4601f0c1ff013ecde90201d1e79fed1f
:100b48002e7b06468ded027bb3e70c9d8be64ff0be
:100b580000084ff00009d9e6baf1000f0bd1b9f13e
:100b6800000f08d02e2304f80b30079b013b0135fa
:100b780007934ff0010a04eb080362192b4403e0c2
:100b88004ff0300102f8011b9a42f9d1079b05eb9f
:100b9800080ba3eb08080b9b0928d4bf303057304b
:100ba800192b06d840f02003613b192b01d805f01a
:100bb80078fb08f1ff330bf1010504f80b000793ec
:100bc8004ff00008d8e60799b6fbf8fc013b08fb94
:100bd8001c6630360139e6540791664618e7225cf0
:100be8001a54013841e7089bdb067ff501af2e2335
:100bf80063550135fce600bf000000000000f03f2f
:080c08000000e03f0000504332
:020000040000fa
:100c100080b586b000af78607b687b6100233b6164
:100c20007b69002b00f099817b695b693b617b6983
:100c3000db68db6898470346fb73fb7b002b0ad01d
:100c40007b6902221a707b6900225a617b690a2241
:100c500083f8452082e17b6993f84430012b06d16b
:100c60007b6902221a707b6900225a6176e17b69f6
:100c700093f84430022b40f061817b6993f8453052
:100c8000dbb2013b072b00f2528101a252f823f0a4
:100c9000b10c0000d90c00002d0d0000250e000045
:100ca000390e00002f0f00002f0f0000cb0e0000a8
:100cb0007b691a7e7b6983f870207b6993f87030ba
:100cc000602b04d17b69022283f8452030e17b69e7
:100cd0000a2283f845202be17b695b7e1b021ab256
:100ce0007b691b7e1bb213431bb29ab27b69a3f8cc
:100cf00048207b69db7e1b021ab27b699b7e1bb29c
:100d000013431ab27b69a3f84a207b695b7f1b02fd
:100d10001ab27b691b7f1bb213431ab27b69a3f81b
:100d20004c207b69032283f8452001e17b695b7ecf
:100d30001b021ab27b691b7e1bb213431bb29ab211
:100d40007b69a3f84e207b69db7e1b021ab27b69ac
:100d50009b7e1bb213431ab27b69a3f850207b69b8
:100d60005b7f1b021ab27b691b7f1bb213431ab253
:100d70007b69a3f852207b69db7f1b021ab27b6977
:100d80009b7f1bb213431ab27b69a3f854207b6983
:100d900093f821301b021ab27b6993f820301bb202
:100da00013431ab27b69a3f856207b6993f823306a
:100db0001b021ab27b6993f822301bb213431ab29a
:100dc0007b69a3f858207b6993f825301b021ab27f
:100dd0007b6993f824301bb213431ab27b69a3f8e2
:100de0005a207b6993f827301b021ab27b6993f86b
:100df00026301bb213431ab27b69a3f85c207b69cf
:100e000093f829301b021ab27b6993f828301bb281
:100e100013431ab27b69a3f85e207b69042283f82e
:100e2000452085e07b691a7e7b6983f860207b69b9
:100e3000052283f845207be07b695b7e1b021ab2aa
:100e40007b69a3f862207b69b3f962207b691b7e12
:100e50001bb213431ab27b69a3f862207b699a7ea6
:100e60007b6983f864207b69db7e5bb29bb21b01ec
:100e70009bb2bb817b691b7f1bb203f00f037b819d
:100e8000ba897b8913431ab27b69a3f866207b6910
:100e90005b7f5bb29bb21b019bb2bb817b691b7ffb
:100ea0001b09dbb27b81ba897b8913431ab27b6948
:100eb000a3f868207b699b7f5ab27b6983f86a201c
:100ec0007b69072283f8452032e07b691833194695
:100ed000786902f05dfe7b6903f174027b69483337
:100ee0001946104602f046fb02467b69c3f884208f
:100ef0007b6903f174027b6948331946104601f09f
:100f000069f802467b69c3f880207b6903f17402ab
:100f10007b6948331946104601f08cfc02467b6918
:100f2000c3f888207b69092283f8452000e000bfd0
:100f30007b6902221a707b6900225a613b69002b8f
:100f40000cd03b695b68002b08d03b695b683a6951
:100f5000926811460120984700e000bf1837bd464f
:040f600080bd00bf91
:020000040000fa
:100f64002de9f04fadb00027dff8e4a20391064667
:100f74001546b8464ff0ff3903990b78002b00f063
:100f8400f9800cabcde907890a938023cdf824803e
:100f94000b9300240b5d0bb1252b26d134b12246d3
:100fa400304604f0f1fb039b23440393039b1a781c
:100fb400252a40f0d78003f1010bcdf80cb003983b
:100fc40003782b2b1ad025d8202b1bd0232b1dd0f4
:100fd4002a2b27d004f00ffa0990039b1a78303a91
:100fe400092a2ed801330393f7e70134d2e7079b8c
:100ff40043f00103013007930390e0e7079b43f0bc
:101004000403f7e7079b43f00803f3e7079b43f068
:101014001003efe72d2bead0302bd9d1079b43f0f7
:101024000203e7e72b681a1d1b682a600130002bb6
:101034000390099305da079a5b4282f00102079252
:101044000993079bda0744bf23f002030793039b2a
:101054001a782e2a0dd1581ccdf8208003905a7886
:101064002a2a25d1023303932b681a1d1b682a6090
:10107400089303a804f032fc039b0190187805f050
:101084000bf96928019979d032dc632800f0c68015
:1010940019dc252800f0d080612853d025238df851
:1010a4001030cdf80cb0cdf81c80cde90898c0e024
:1010b40004f0a1f90890039b1a78303a092ad8d889
:1010c40001330393f7e7642858d06728e6dc2a46ff
:1010d40004a804f093fe002800f09c80039b5a1c93
:1010e40003921b7804aa07a93046fff7cff838e02b
:1010f400702873d015dc6e2800f087806f28cdd15e
:101104002b46002204a802f0a1fb002800f08280f4
:10111400039b04aa013307a93046039303f005fa9d
:101124001fe075283ad0782848d07328b6d1802992
:1011340070d1039b2a6801330393131d2b6012683b
:1011440000235be02a4604a804f058fe002861d07e
:10115400039b5a1c03921b7804aa07a93046fff785
:10116400f9fa04443c44a7426edd384b4f221a601e
:101174004ff0ff3738462db0bde8f08f2b460122e3
:1011840004a802f063fb002844d0039b04aa0133a3
:1011940007a93046039302f003fce2e72b46002242
:1011a40004a802f053fb002834d0039b04aa0133a3
:1011b40007a93046039303f0d3fed2e72b4600225f
:1011c40004a802f043fb28b3039b5a1c03921b7828
:1011d40004aa07a9304601f009fdc2e72b46002204
:1011e400f02104a802f032fba0b1039b0133039366
:1011f400dde90423134306d10023524607a93046f0
:1012040003f082feade77823e2e72b463a1904a8ff
:1012140003f05ef8039b01330393a3e78029f9d11c
:10122400039b013303932b681a1d1b682a608df8f6
:101234001030012304aae1e78029ebd1039b8df848
:10124400100001330393f4e7274695e6bc08002019
:04125400e660000050
:020000040000fa
:101258002de9f04f099f154604468e461e46002b81
:1012680040f0cc808a42b2fa82fc4cd9bcf1000f23
:101278000bd0ccf1200801fa0cfe20fa08f802fa8b
:101288000cf548ea0e0e00fa0cf44fea15491ffa5d
:1012980085f8befbf9fa210c09fb1ae30afb08fbe7
:1012a80041ea03439b452ad9eb180af1ff3004d2df
:1012b8009b4502d9aaf102002b44a3eb0b03a4b26d
:1012c800b3fbf9f209fb123302fb08f844ea0344c2
:1012d800a04516d92c1902f1ff3303d2a04501d934
:1012e800931e2c44a4eb080443ea004027b124fad7
:1012f8000cf400233c607b603146bde8f08f50461b
:10130800dbe71346eee702b9ffdebcf1000f2ed192
:101318008b1a01264fea154eaab2b3fbfef8210c30
:101328000efb183308fb02f941ea0343994561d9da
:10133800eb1808f1ff3004d2994502d9a8f1020050
:101348002b44a3eb0903a4b2b3fbfef10efb11334c
:101358004a4344ea0344a2424ed92c1901f1ff330f
:1013680003d2a24201d98b1e2c44a41abce7ccf1ab
:10137800200e02fa0cf521fa0ef901fa0cf320fa04
:101388000efe4eea03034fea154800fa0cf4b9fbc7
:10139800f8f11ffa85fe08fb1192180c01fb0ef6f6
:1013a80040ea0242964221d9aa1801f1ff3003d23d
:1013b800964201d9881e2a44921b9bb2b2fbf8f9c7
:1013c80008fb192209fb0efe43ea02439e450fd98a
:1013d800eb1809f1ff3604d29e4502d9a9f102069d
:1013e8002b44a3eb0e0346ea004693e70846e3e7df
:1013f8004e46f6e74046a4e70b46b6e78b4206d9c9
:10140800002f7ed00026c7e90001304674e7b3fa02
:1014180083fcbcf1000f0fd18b4201d3824209d863
:10142800841a61eb030e0120002f6dd0c7e9004e2e
:10143800002661e76046f7e7ccf1200e03fa0cf3cb
:1014480022fa0ef521fa0ef41d4301fa0cf320fae4
:101458000ef10b434fea154a00fa0cf6b4fbfaf901
:101468001ffa85f80afb19401c0c09fb08f144ea2d
:101478000044a14202fa0cf23fd92c1909f1ff30bd
:1014880004d2a14202d9a9f102002c44641a9bb2e9
:10149800b4fbfaf90afb194409fb08f843ea0441ca
:1014a80088452cd9691809f1ff3304d2884502d937
:1014b800a9f10203294443ea0040a1eb0801a0fb7b
:1014c80002894945c2464c4602d306d1464504d254
:1014d800b8eb020a69eb05040138afb1b6eb0a03b1
:1014e80061eb040606fa0efe23fa0cf34eea030338
:1014f80026fa0cf6c7e900369ae74846c6e74b468f
:0c150800d9e73e463846f7e63e46f5e6d9
:020000040000fa
:1015140030b591ea030f00f18280841a71eb030c59
:1015240005d2121953eb0c03001b71eb0c0140f2b2
:10153400000ccff6e07c1cea430f52d0bceb410f09
:101544005fd90c0da4eb135e5ff0010c6cf31f511b
:101554006cf31f53def1200c2ad303fa0cf5401967
:1015640041f1000122fa0ef5401923fa0ef5694102
:1015740012fa0cf2cd0208d349085fea30005feaa0
:10158400320228bf42f001020134013c5fea500cf0
:1015940072f1004250f1000051eb04514ff400137a
:1015a40013eb410f38bf30bd6ff31301002030bd82
:1015b400bef1200ebef1200f1ed223fa0ef5401903
:1015c40041f10001cef1200c124218bf012203faae
:1015d4000cf52a43cee711ea5c0f04bf002000217a
:1015e40030bd1cea410f04bf01f00041002030bdb2
:1015f40001f00041002030bd21f4801101eb0451c1
:1016040030bd004218bf41f00101bceb410f08bfdf
:1016140030bd4ff0fe4141f47801002030bd83f02d
:101624000043841a71eb030e07d28ef0004e001ba8
:1016340071eb0e01121953eb0e0340f2000ccff6be
:10164400e07c1cea430fc6d0bceb410f72d90c0df1
:10165400a4eb135ec90241ea5051c00241f00041bb
:10166400db0243ea5253d20243f00043def1200c82
:1016740041d312fa0cf522fa0ef203fa0cf542eaff
:10168400050218bf42f0010223fa0ef3801a9941b1
:10169400e30ac4f30a0411f0404f03d418d0013c08
:1016a40040004941013c23d44205c00a40ea41506c
:1016b400c90a51eac3715fea500c72f1004250f159
:1016c400000051eb045130bd01002fd00020203c1c
:1016d4000029f9d0b1fa81fcdcf1200e11fa0cf1e9
:1016e40030fa0ef510fa0cf02943a4eb0c04d9e7f8
:1016f4000020d90730bdaef1200ebef1200f0dd26f
:10170400cef1200c03fa0cf533fa0ef32a4318bf7a
:1017140043f00103c01a61f10001b9e721f000416f
:10172400c00a40ea4150c90a01eb045130bd00200f
:10173400002130bd004218bf41f00101bceb410f54
:0e1744007ff467afbceb430f3ff463af30bde3
:020000040000fa
:02175200fee7b0
:020000040000fa
:1017540080b500af874b9b7ddbb2002b00f0078187
:10176400844b5b8b9bb203f00203022b08d1824ba8
:10177400ff2283f82020804b022283f82120aee050
:101784007c4b5b8b9bb203f00103012b08d17a4b9a
:10179400ff2283f82020784b022283f821209ee048
:1017a400744b5b8b9bb203f00403042b08d1724b84
:1017b400ff2283f82020704b012283f821208ee041
:1017c4006d4b93f820305bb2042b00f2878001a2aa
:1017d40052f823f0e1180000e1180000ed170000b2
:1017e4008d18000011180000634b1b69002b06d0f4
:1017f400614b9b880021184603f008fc6fe05e4ba8
:101804009b880121184603f001fc68e05a4b9a6951
:10181400594b1b699a4224d1574b5b69002b10d05a
:10182400554b9b885b00534a43f00103536200bf4e
:10183400504bdb69002bfbd14f4b032283f8202054
:101844004de04c4b5b684b4a43f44033536000bf5c
:10185400484bdb69002bfbd1474b062283f8202041
:101864003de0454b9a68444b9b6913441a78414bbd
:101874009a62414b9b6901333f4a936100bf3d4be0
:10188400db69002bfbd12ae03b4bda693a4b5b69fd
:10189400013b9a420ed1374b5b68364a43f4e0234e
:1018a400536000bf334bdb69002bfbd1324b062264
:1018b40083f8202000bf2f4bdb69002bfbd12d4b7d
:1018c400996a2d4bda682c4bdb691344cab21a703f
:1018d400294bdb690133284ad36100e000bf264b62
:1018e40093f820305bb2b3f1ff3f1cd1224b0022ae
:1018f40083f820201f4b5b681e4a43f44033536037
:1019040000bf1c4bdb69002bfbd11a4b83221a76d8
:10191400194b5b6a002b2ad0174b5b6a164a926af2
:101924001046984723e0144b93f820305bb2062b03
:101934001dd1114b002283f820200f4b002283f885
:1019440021200c4b83221a7600bf0a4b5b8b9bb27f
:1019540003f03003102bf8d1074b5b6a002b06d041
:10196400054b5b6a044a926a1046984700bf00bf61
:0c19740080bd00bf0040014100080020c1
:020000040000fa
:1019800080b500af874b9b7ddbb2002b00f0078159
:10199000844b5b8b9bb203f00203022b08d1824b7a
:1019a000ff2283f82020804b022283f82120aee022
:1019b0007c4b5b8b9bb203f00103012b08d17a4b6c
:1019c000ff2283f82020784b022283f821209ee01a
:1019d000744b5b8b9bb203f00403042b08d1724b56
:1019e000ff2283f82020704b012283f821208ee013
:1019f0006d4b93f820305bb2042b00f2878001a27c
:101a000052f823f00d1b00000d1b0000191a0000f6
:101a1000b91a00003d1a0000634b1b69002b06d069
:101a2000614b9b880021184603f01cfb6fe05e4b66
:101a30009b880121184603f015fb68e05a4b9a6910
:101a4000594b1b699a4224d1574b5b69002b10d02c
:101a5000554b9b885b00534a43f00103536200bf20
:101a6000504bdb69002bfbd14f4b032283f8202026
:101a70004de04c4b5b684b4a43f44033536000bf2e
:101a8000484bdb69002bfbd1474b062283f8202013
:101a90003de0454b9a68444b9b6913441a78414b8f
:101aa0009a62414b9b6901333f4a936100bf3d4bb2
:101ab000db69002bfbd12ae03b4bda693a4b5b69cf
:101ac000013b9a420ed1374b5b68364a43f4e02320
:101ad000536000bf334bdb69002bfbd1324b062236
:101ae00083f8202000bf2f4bdb69002bfbd12d4b4f
:101af000996a2d4bda682c4bdb691344cab21a7011
:101b0000294bdb690133284ad36100e000bf264b33
:101b100093f820305bb2b3f1ff3f1cd1224b00227f
:101b200083f820201f4b5b681e4a43f44033536008
:101b300000bf1c4bdb69002bfbd11a4b83221a76aa
:101b4000194b5b6a002b2ad0174b5b6a164a926ac4
:101b50001046984723e0144b93f820305bb2062bd5
:101b60001dd1114b002283f820200f4b002283f857
:101b700021200c4b83221a7600bf0a4b5b8b9bb251
:101b800003f03003102bf8d1074b5b6a002b06d013
:101b9000054b5b6a044a926a1046984700bf00bf33
:0c1ba00080bd00bf000c00432c0800209a
:020000040000fa
:101bac00f0b581ea030e0ef0004e40f20007cff6be
:101bbc00e07717ea41051ebf95ea070f17ea4304c1
:101bcc0094ea070f00f0c5806d0da5eb545707f58f
:101bdc0080674ff0004646eac12444ea5054c002e4
:101bec0046eac32343ea5253d202801a9c4104d2e0
:101bfc000018644180185c41013f5b084fea3202d7
:101c0c000025002140f001004ff0070604e0801a87
:101c1c009c4136d340416441801a9c4136d34041ab
:101c2c006441801a9c4136d340416441801a9c41e6
:101c3c0036d340416441801a9c4136d340416441c3
:101c4c00013e17d0801a9c4136d340416441801a22
:101c5c009c4136d340416441801a9c4136d340416b
:101c6c006441090201eb156190ea052520f0ff00a3
:101c7c004540cce7801a9c4156d335e080185c4136
:101c8c00c8d20018644180185c41c8d20018644165
:101c9c0080185c41c8d20018644180185c41c8d2dd
:101cac000018644180185c41c8d200186441013ea0
:101cbc0017d080185c41c8d20018644180185c4170
:101ccc00c8d20018644180185c41c8d20018644125
:101cdc00090201eb156190ea052520f0ff00454053
:101cec00cce780185c411fd3420918bf44f00104b3
:101cfc00490101ebd56100f01f0000eb451021f408
:101d0c00801141ea0e01013041f10001244208bf6b
:101d1c0020f00100b7f5006f3eda013f49dd01eb21
:101d2c000751bde8f0407047490101ebd56100f067
:101d3c001f0000eb451021f4801141ea0e01b7f5ac
:101d4c00006f29da013f34dd01eb0751bde8f040ab
:101d5c007047004218bf41f00101124218bf43f016
:101d6c000103b7eb410f2cbfb7eb430f1ce0b7ebf4
:101d7c00410f04bfb7eb430f16e017ea410f04bf46
:101d8c0017ea430f10e017ea410f12d017ea430f7e
:101d9c0002d0b7eb430f0cd04ef0fe4141f4700172
:101dac000020bde8f04070474ff0fe4141f478014f
:061dbc00f6e77146f4e7b2
:020000040000fa
:021dc200704768
:020000040000fa
:101dc400580800201c00000000000000b406002099
:101dd4008c00000000000000000800202c0000001f
:101de400000000002c0800202c000000000000006f
:101df400d00700203000000000000000740800201c
:101e040018000000000000008c0800200c000000f6
:101e140000000000980800200c00000000000000f2
:101e2400a408002008000000000000009007002023
:101e3400400000000000000014060020a000000084
:101e440000000000b00900200200000001000000b2
:101e540001000000b408002004000000000000009d
:101e6400400700205000000000000000c4080020cb
:101e74006c00000001000000d0080020cc08002005
:101e8400d008002000000000250000000800002009
:101e9400000400000000000000000000000000003a
:101ea400000000000000000000000000000000002e
:101eb40000000000550700000000000000000000c2
:101ec4000000000000000000c94a000000000000fb
:101ed40000000000000000000000000000000000fe
:101ee40000000000000000200804000000000000c2
:101ef4009009002020000000010000000100000003
:101f040003000000000000000000000000000000ca
:101f14000000000000000000ac080020ac08002015
:101f24000800000000000000b808002004000000c1
:101f340000000000080400200c0200000000000063
:101f440030090020600000000100000001000000d2
:101f5400030000000000000000000000000000007a
:101f64000000000000000000f54c0000000000002c
:101f74000000000000000000116300003740000072
:101f8400000000000000000000000000000000004d
:101f9400000000000000000000000000000000003d
:101fa400000000000000000000000000bc08002049
:101fb4000400000000000000c0080020040000002d
:101fc40000000000000000000000000044444444fd
:020000040000fa
:101fd40080b48bb000af7860396047f230533b6215
:101fe400744bfb613b685b6ada0f13445b10a3f527
:101ff4007a43bb61bb69002b00da03339b101a469a
:10200400bb69002b00da03339b1003fb02f3002ba4
:1020140001da03f2ff73db121a463b68b3f910309e
:1020240003fb02f37b613b68b3f90e301a46bb69cc
:1020340003fb02f35b007a6913447b617b69002b29
:1020440000da03339b101a463b68b3f90c301b04c7
:1020540013447b613b68b3f90a301a46bb69002b11
:1020640000da03339b101946bb69002b00da0333f3
:102074009b1003fb01f3002b02da03f5ff531f331c
:102084005b1303fb02f3002b00da0733db103b6125
:102094003b68b3f908301a46bb6903fb02f3da0f55
:1020a40013445b10fb603a69fb681344002b03daaa
:1020b40003f57f3303f2ff339b14bb61bb6903f564
:1020c40000433a68d28802fb03f3002b02da03f5db
:1020d400ff437f33db13bb61bb69002b61d07b689b
:1020e4001b68c3f58013bb607b69002b01da03f620
:1020f400ff731b131a46bb689b1a40f6354202fb5a
:1021040003f37b627b6a002b06db7b6a5a00bb69a4
:10211400b2fbf3f37b6205e0bb697a6ab2fbf3f3cb
:102124005b007b623b68b3f9163019467b6adb08b7
:102134007a6ad20802fb03f35b0b03fb01f3002b67
:1021440001da03f6ff731b13bb617b6a9b081a4613
:102154003b68b3f9143003fb02f3002b02da03f5f6
:10216400ff531f335b137b61ba697b6913443a687d
:10217400b2f912201344002b00da0f331b111a4654
:102184007b6a13447b627a6a3b6a9a4202d23b6a54
:102194007b6208e07a6afb699a4204d9fb697b6234
:1021a40001e03b6a7b627b6a18462c37bd465df8ca
:0821b400047b7047b0ad01008f
:020000040000fa
:1021bc002de9f04f87b0039003a803f047fa0028ed
:1021cc0003da002007b0bde8f08f039b1b095d1eee
:1021dc00202d0fd9023b5e4ab3f5007f35bf02ebd1
:1021ec00d30302ebd31313f8045c13f8045c34bf71
:1021fc00013511350123a5f12001c5f1200203faa7
:10220c0001f923fa02f203fa05f8d8f1000849eab9
:10221c00020969eb4909cde90089dff84081dff853
:10222c0030914746d8e90023009902ea010a019946
:10223c0003ea010b5aea0b0342d1039b05a81033a6
:10224c00059303f08bff18b9424b0c221a60b9e7c7
:10225c00d8f80852a84206d0059b103b05930123e1
:10226c0000f110058360059bea18012143f001037e
:10227c00b5f1080442f8083c42f8041cc7f80822df
:10228c0045f8043c9dd0204603f00bfc88b155f872
:10229c00083c55f8041c23f00103e31a5a6822f099
:1022ac0001020a445a6055f8041c21f001016250e5
:1022bc001c462046039903f054fc04f1080081e706
:1022cc005446254bbaf1000f34d1cbf1000000ea93
:1022dc000b00434309ebd36393f83c602036304644
:1022ec0003f07efe731c57f8334007ebc303083b27
:1022fc009c4297d0272e26dd0235ae4201dc3f2ec4
:10230c0021d16268039922f00102551a284603f084
:10231c00c5fa864217d1e068a6686318d8609e603b
:10232c0083609868c36041f0010060505d60a55007
:10233c006060bee7caf100002040434309ebd36361
:10234c0093f83c60cbe73146204602f0adfdb0e798
:10235c00984c0000bc08002029e66b0708040020fc
:020000040000fa
:10236c0080b584b000af78600023fb607b68b3f16c
:10237c00ff3f00f0c0807b68002b40f0bc807b6886
:10238c008c2202fb03f35f4a1344fb60fb6893f956
:10239c000030012b00f0b180fb6893f84530dbb2c4
:1023ac000a2b00f2ab8001a252f823f0e5230000c7
:1023bc003b24000047240000532400005f2400004d
:1023cc006b240000bd2400007724000009250000c8
:1023dc000925000009250000fb68012283f845202f
:1023ec00fb6800225a61fb68012283f84420fb68d9
:1023fc0001221a70fb68db685b69fa6840320021c5
:10240c0010469847fb68e02283f83820fb68b62218
:10241c0083f83920fb68db685b68fa6892f83c202b
:10242c0090b2fa6802f138010222984766e0012264
:10243c00d021f86802f021fa60e006228821f868c1
:10244c0002f01bfa5ae012228e21f86802f015fafb
:10245c0054e00122a121f86802f00ffa4ee00722a5
:10246c00e121f86802f009fa48e0fb68062283f8db
:10247c004520fb6800225a61fb68012283f8442046
:10248c00fb6801221a70fb68f22283f83820fb6883
:10249c00012283f83920fb68db685b68fa6892f8e4
:1024ac003c2090b2fa6802f138010222984725e0ec
:1024bc00fb68092283f84520fb6800225a61fb68ff
:1024cc00012283f84420fb6801221a70fb68f42275
:1024dc0083f83820fb68272283f83920fb68db68f7
:1024ec005b68fa6892f83c2090b2fa6802f1380105
:1024fc000222984702e000bf00e000bf1037bd4643
:08250c0080bd00bfb4060020f1
:020000040000fa
:1025140090b591b004af5d4b1b78042b00f2ac80f6
:1025240001a252f823f000bf412500008b250000d2
:102534009f2500007d260000db25000008210020e7
:1025440001f082fa0246514b5a60504b5b68b3f17a
:10255400ff3f00f093804d49012341f288324c48fb
:1025640002f0f4fb4b4803f0fbfc4b4803f098fcef
:10257400464b5b68454a4949184603f0dffa434b2a
:1025840001221a707fe0002002f094fd0346022b22
:1025940076d13e4b02221a7072e003f051fd0346dd
:1025a40083f00103dbb2002b6cd03d4b1b681b682e
:1025b400184603f0f7fd034687f82f3097f82f30bd
:1025c400312b5fd1314b03221a70304b5b681846b4
:1025d40001f02cfb56e02d4b5b6807f10c02114611
:1025e400184602f07ff9294b5b6807f1080211468f
:1025f400184602f0a7f9254b5b683a1d11461846a8
:1026040002f0d0f9fb68184603f0bcfc4ff000025e
:10261400244bfff7c9fa03460c46c7e90834bb68e4
:10262400184603f037fd4ff000021e4bfff7bcfacb
:1026340003460c46c7e906347b68184603f02afdb6
:102644004ff00002184bfff7affa03460c46c7e9f8
:1026540004340e4b9968d7e90434cde90234d7e940
:102664000634cde90034d7e90823104803f078fc98
:10267400064b02221a7006e000bf04e000bf02e02d
:1026840000bf00e000bf3437bd4690bd980800206d
:10269400555e0000b4260000bc260000bb590000b3
:1026a400c80800200000594000009040f4270000b2
:020000040000fa
:1026b4001b5b481b5b324a002a2a2a20424d4532c2
:1026c400383020576561746865722053656e736f86
:1026d400722044656d6f6e7374726174696f6e20dd
:1026e4002a2a2a0d0a436f6e6e65637420424d4593
:1026f400323830204d696b726f6520436c69636baf
:1027040020626f61726420746f20455854310d0a41
:10271400436f6e6e65637420494f31205850524f99
:1027240020776974682061646472657373206c69ce
:102734006e65732041303d312c2041313d312c20d8
:1027440041323d3120746f2045585432200d0a31f6
:102754003a20526561642074656d706572617475a8
:1027640072652066726f6d2074656d706572617438
:102774007572652073656e736f720d0a323a205755
:10278400726974652074656d7065726174757265c3
:1027940020746f20454550524f4d0d0a333a205254
:1027a4006561642074656d7065726174757265200d
:1027b40066726f6d20454550524f4d0d0a5072653b
:1027c400737320616e79206b657920746f20636c5c
:1027d4006561722073637265656e20616e6420703a
:1027e40072696e74206d656e750d0a0d000000bf70
:1027f40025366c640954656d706572617475726513
:10280400203d2025362e3266095072657373757229
:1028140065203d2025372e32660948756d69646947
:102824007479203d2025352e31660d0a000000bf45
:020000040000fa
:1028340080b48bb000af786039604ff4c8333b622a
:102844003b685b6aa3f59633fb617b689b689b03db
:10285400bb613b68b3f91e301b057b613b68b3f970
:1028640020301a46fb6902fb03f33b61ba697b69ba
:10287400d21a3b69d31a03f58043002b02da03f51d
:10288400ff437f33db13fb603b6893f922301a4626
:10289400fb6903fb02f3002b01da03f2ff339b1203
:1028a400bb613b681b7f1a46fb6903fb02f3002be9
:1028b40001da03f2ff73db127b617b6903f50043ea
:1028c400ba6902fb03f3002b01da03f2ff339b1214
:1028d40003f500133b613b68b3f91a301a463b69b0
:1028e40003fb02f303f50053002b02da03f57f53d5
:1028f4003f339b13bb61fb68ba6902fb03f37b6143
:102904007b69002b02da03f5ff437f33db131a469e
:102914007b69002b02da03f5ff437f33db1303fbf0
:1029240002f3002b00da7f33db113b613b681b7e33
:102934001a463b6903fb02f3002b00da0f331b1129
:102944005b421a467b691344fb60fb6823eae3732a
:10295400fb60fb68b3f1c85fa8bf4ff0c853fb60ce
:10296400fb68002b01da03f6ff731b137b627a6aa0
:102974003b6a9a4201d93b6a7b627b6a18462c37d0
:08298400bd465df8047b7047bd
:020000040000fa
:10298c002de9f04f8db000af4ff000034ff0000475
:10299c00c7e90a34464bfb61fb695b6bbb61fb69a6
:1029ac005a69fb691a61bb69002b2ad0bb699b6809
:1029bc00002b11dafb695b694ff000046ff00041ea
:1029cc004ff000025818b86044eb0203fb60d7e9e3
:1029dc000234c7e90a3422e0bb699b687b61fb695e
:1029ec005b6919464ff000027b694ff00004c81870
:1029fc00386042eb04037b60d7e90034c7e90a3442
:102a0c000de0fb695b694ff000046ff000414ff083
:102a1c00000213eb010a44eb020bc7e90aabfb699a
:102a2c005b689b69984703464ff00004c7e908347c
:102a3c00fb691b694ff00004d7e90812a24208bfda
:102a4c00994207d2d7e9083413f1ff3844f1000951
:102a5c00c7e90889fb691b6a19464ff00002d7e9e0
:102a6c000834cd1842eb0406d7e90a34b44208bf47
:102a7c00ab4206d2fb691a6a3b6a1a44fb69da61fb
:102a8c0002e0ba6afb69da61fb69db69002b02d1ef
:102a9c00fb690122da61fb695b685b69fa69d269df
:102aac001046984700bf3437bd46bde8f08f00bfd5
:042abc00900700205f
:020000040000fa
:102ac000f0b540f2ff7681ea030c16ea115e1ebff4
:102ad000b64516ea1355b54252d021ea465141f4a3
:102ae0008011a1fb024723ea465343f48013ae440e
:102af000a0fb03650cf0004c36197d41a1fb034798
:102b000047f10003a0fb0217f619654153f10003da
:102b1000094218bf46f0010640f2fe74b3f5007f8b
:102b200013d2aef5806ea64523d24cea03312803ba
:102b300041ea155140ea16503203450872f100424d
:102b400050f1000051eb0e51f0bdaef2ff3ea64534
:102b50000fd24ceac321e80241ea555140ea5650ef
:102b6000f202450872f1004250f1000051eb0e51a3
:102b7000f0bd1eea0e0f2dd50cf000410020f0bd77
:102b800016ea115f04bf01f000410020004218bfa7
:102b900041f0010116ea135f04bf03f00043002275
:102ba000124218bf43f0010306ea1354b44218bf9f
:102bb000b64503d00cf000410020f0bd21f00041eb
:102bc00023f00043b1eb065f0cd8b3eb065f09d8e6
:102bd00041b13bb10cf0004141f0fe4141f47001c4
:102be0000020f0bd40f20001c7f6f8710020f0bdf2
:020000040000fa
:102bf0002de9f04fd1e901590e68d1f80c808bb066
:102c0000002da8bf26f002060393b8bf012516f0d9
:102c1000100302900f460493d2e900ab37d05aea72
:102c20000b0334d0a9f102033c6916f0080104f14a
:102c3000ff3405914ff0000108f8041006f002017e
:102c40000691039918bf03f1ff335b1b4139012c37
:102c50001fdc049b002b4cd1059b1bb1013c2023a6
:102c600008f804303a690096013a4b46121b08eb0b
:102c70000401029801f0eefa029b5b68db0503d5c4
:102c80007b689842b8bf18460bb0bde8f08f4b4642
:102c9000cae75aea0b0007d1002d05dc58190028b5
:102ca000d7dd06980028d4d00af00f000928d4bf39
:102cb00030305730192904f1ff340ed840f0200c81
:102cc000acf1610cbcf1190f07d8cde908310792be
:102cd00003f0ebfadde90831079a08f804004fea3f
:102ce0001a1040ea0b704fea1b1c013d8246e34676
:102cf000ade7d2e900231343aed008eb0403039af7
:0e2d000003f8012c023c302308f80430a4e74d
:020000040000fa
:022d0e0070470c
:020000040000fa
:102d100080b489b000aff860b9607a600023fb61cd
:102d2000fb6807ee903af8ee677ac7ed067abb6863
:102d300007ee903af8ee677ac7ed057a4ff0000398
:102d40003b61bb685b00fa689a4201d2002357e0fe
:102d5000bb682e4a93421fd8d7ed066ad7ed057a95
:102d600086eea77ad7ed067adfed296a67eea67ab6
:102d7000f2ee046a77eea67a77ee677ac7ed047a08
:102d8000d7ed047afceee77a17ee903afb61bb6868
:102d9000204a934213d801e0002331e0fb69b3f5e8
:102da000ff7f02d9ff23fb6126e0fb69012b02d8dc
:102db0000123fb6120e0fb695b08fb611ce0fb6910
:102dc000b3f5bf7f03d34ff67f73fb6114e0fb695c
:102dd000032b03d840f20123fb610de0fb695b008c
:102de0000d4aa2fb03235b081a02fb690a49a1fbf7
:102df00003135b081343fb617b68fa691a600123c4
:102e000018462437bd465df8047b704740420f00ea
:0c2e100095bfd633801a0600abaaaaaa10
:020000040000fa
:102e1c002de9f0038ab000af78604ff000034ff05b
:102e2c000004c7e90834394b3b613b695b6bfb61c0
:102e3c000023bb610023fb757b68002b01d1fb7d5c
:102e4c005de07b689b68fb60fb69002b2ad17b688b
:102e5c00fa689a603b697a685a630123fb754de006
:102e6c00fb699b6819464ff00002d7e90834cd186e
:102e7c0042eb0406fb684ff00004b44208bfab42bf
:102e8c0014d3fb699b684ff00004d7e9081211ebcf
:102e9c00030842eb0409c7e90889fb69bb61fb69bc
:102eac009b69fb61fb69002bdad100e000bfbb69b9
:102ebc00002b08d13b697a685a637b68fa699a617e
:102ecc000123fb7506e0bb699a697b689a61bb6953
:102edc007a689a613b6afa68d21a7b689a607b6856
:102eec009b69002b0ad07b689b68fb607b689b69a5
:102efc0099687b689b69fa688a1a9a60fb7d184608
:102f0c002837bd46bde8f003704700bf900700208e
:020000040000fa
:102f1c0080b588b000aff860b9607a603b604ff064
:102f2c00ff33fb6100237b6101f066ff034683f0f6
:102f3c000103dbb2002b01d0fb6958e02e4b93f957
:102f4c000030022b50d1bb68002b4dd0ba68fb6807
:102f5c009a4249d3294bbb6142e0bb691b7883f091
:102f6c000103dbb2002b35d0bb6901221a70bb699f
:102f7c0000225a70bb6900221a75bb6900225a756f
:102f8c00bb6997f828209a70bb69ba685a60bb690c
:102f9c007a68da60bb693a681a61ba68fb68d21a57
:102fac00bb699a60164b1b887a6992b21146184617
:102fbc0002f0c0ff0246bb69da61114b1b88184650
:102fcc0002f096fe03461a460d4b1a80bb69db696c
:102fdc00fb6109e07b6901337b61bb692033bb6119
:102fec00bb69084a9342b8d302f020fcfb6918462f
:102ffc002037bd4680bd00bf90070020140600207e
:08300c00b0090020b406002009
:020000040000fa
:103014002de9f84300286ad050f8043ca0f10804d4
:1030240023f00106a719a259934200d0ffde7a6863
:1030340023681340da070fd4204602f036fd002837
:1030440057d1384602f06efe0028f0d07b6823f09a
:1030540001031e441f44eae746f00103636030465f
:103064003b6002f01ffc054602f0beff23687a684d
:103074001340db07e0d5dff88ce0dee90089c5f119
:10308400200ca5f1200228fa05f009fa0cfc29fa13
:1030940002f240ea0c001043012100ea010200237d
:1030a4001343c5f120007346a5f1200212d121fa81
:1030b40000f001fa02f2a94042ea00021ebfdef863
:1030c40000000143cef8001022b1def804100a43d8
:1030d400cef80420681c03ebc003a3f10802666069
:1030e4003e60a2605a68e2605c60e3689c60bde890
:1030f400f883236823f00103e41a636823f00103cf
:083104001e449ee708040020b0
:020000040000fa
:10310c0080b500af002002f007f9bff35f8f62b605
:10311c000721362001f04cff362002f0d7fa0721a8
:10312c00372001f045ff372002f0d0fa0721382074
:10313c0001f03eff382002f0c9fa0721392001f0d6
:10314c0037ff392002f0c2fa07213a2001f030ff94
:10315c003a2002f0bbfa07213b2001f029ff3b206b
:10316c0002f0b4fa07213c2001f022ff3c2002f0cf
:10317c00adfa07213d2001f01bff3d2002f0a6fa1d
:10318c0007214a2001f014ff4a2002f09ffa072180
:10319c004b2001f00dff4b2002f098fa07214c2038
:1031ac0001f006ff4c2002f091fa07214d2001f0ae
:1031bc00fffe4d2002f08afa07216b2001f0f8fe89
:1031cc006b2002f083fa0a4b5b6a094a43f48023b2
:1031dc005362074b5b69064a43f010035361044b7f
:1031ec005b6a034a43f40033536200bf80bd00bfe7
:0431fc0000ed00e002
:020000040000fa
:1032000080b582b000af0023fb710023bb71364b49
:103210001b7ddbb2002b62d0334b9a68324b5b686c
:103220009a4234bf01230023bb71304b1b7edbb2bb
:1032300003f00103012b0cbf01230023fb712fe0de
:103240002a4b5b6803f00703012b08d0264b1a6852
:10325000254b9b6813441a78244b9a6208e0224b52
:103260001a68214b9b685b0013441a881f4b9a62b3
:103270001d4b9b6801331c4a93601b4b9a681a4b89
:103280005b689a4234bf01230023bb71174b1b7e3e
:10329000dbb203f00103012b0cbf01230023fb7100
:1032a000fb79002b02d0bb79002bc9d10e4b9a6859
:1032b0000d4b5b689a4212d30b4b00221a750a4bd6
:1032c00000225a60094b01221a75074bdb68002b5c
:1032d00005d0054bdb68044a12691046984700bfc9
:1032e0000837bd4680bd00bfd00700200020014147
:020000040000fa
:1032f00080b582b000af0023fb71364b9b7ddbb203
:10330000002b62d0334b1b7edbb203f08003802b9b
:103310000cbf01230023fb712e4b9b7ddbb203f01e
:103320008003802b04d1fb79002b01d0012300e026
:103330000023fb71fb7903f00103fb71fb79002b88
:1033400001d001f033fd234b1b7edbb203f0010300
:10335000012b0cbf01230023fb711e4b9b7ddbb2b5
:1033600003f00103012b04d1fb79002b01d00123d1
:1033700000e00023fb71fb7903f00103fb71fb7993
:10338000002b01d0fff73cff124b1b7edbb203f09a
:103390000403042b0cbf01230023fb710d4b9b7d09
:1033a000dbb203f00403042b04d1fb79002b01d022
:1033b000012300e00023fb71fb7903f00103fb71a3
:1033c000fb79002b01d000f093fb00bf0837bd460e
:0833d00080bd00bf0020014197
:020000040000fa
:1033d80090b587b000af78602d4b7b617b683b610f
:1033e8003b691a687b695a607b695b68db68984748
:1033f80002467b69da607b69db68264ab2fbf3f335
:10340800fb60bc22fb6892fbf3f302331a467b692c
:103418001a623b69b3f904207b691a817b6900222f
:103428001a617b694ff0ff329a617b696ff0004245
:10343800da617a694ff000034ff00004c2e90a34f8
:103448007b6900225a637b69002283f830207b69fc
:103458005b681b680021104898477b695b681b699b
:10346800002b06d07b695b681b697a6992691046f4
:1034780098477b695b685b697a69d26910469847a7
:103488007b695b685b68984700bf1c37bd4690bd89
:0c34980090070020000e2707653d000093
:020000040000fa
:0434a400704700bfae
:020000040000fa
:1034a80053ec102bc3f30a512de9f04140f2fd70a3
:1034b8004e1e86421d4645d8a1f2ff30002835db56
:1034c800332831dc284bc0f120084ff0ff3c03fac9
:1034d80008f2a1f21f412cfa00fc10ee104a4cea47
:1034e800020c23fa01f24cea020c23fa00fe04ea69
:1034f8000c0605ea0e0724ea0c0256ea070425ea38
:103508000e030fd0002a73f100040bda4ff4801574
:1035180005fa08f425fa01f10c43121925fa00f00e
:1035280040eb030343ec102bbde8f081002a73f154
:10353800000303db9fed080bbde8f0819fed080b4e
:10354800bde8f0810029efd10a4603f0004343ecbf
:10355800102be9e7aff30080000000000000000036
:0c356800000000000000f0bfffff0f009b
:020000040000fa
:1035740080b489b000af786039602d4bbb6142f2f2
:1035840034137b617b685b68db083a6812885200fd
:103594009b1a3b613b68b3f902301a463b6903fb53
:1035a40002f3002b01da03f2ff73db123b617b6849
:1035b4005b681b093a6812889b1afb60fb68fa680f
:1035c40002fb03f3002b01da03f6ff731b131a4605
:1035d4003b68b3f9043003fb02f3002b02da03f572
:1035e4007f533f339b13fb603a69fb681a443b6883
:1035f4005a623b685a6a13469b0013448033002b7b
:1036040000daff331b12fb61fa69bb699a4202dae2
:10361400bb69fb6105e0fa697b699a4201dd7b695c
:10362400fb61fb6918462437bd465df8047b70478f
:0436340060f0ffff44
:020000040000fa
:1036380080b586b000af7860396000237b617b6815
:10364800002b01d1002349e07b681b683b613b6884
:10365800002b01d1234b3b6007f10c031a46396953
:103668003868fff751fb034683f00103dbb2002bf8
:1036780001d0002332e03b691b4a934201d9012360
:103688007b611a4b1b68194a23f00203136000bfc1
:10369800164bdb69002bfbd1144afb68d360134b34
:1036a8001b6823f040727b691b0603f040730f49c7
:1036b80013430b600d4b1b680c4a43f00203136065
:1036c80000bf0a4bdb69002bfbd1084b10225a8341
:1036d80000bf064bdb69002bfbd1012318461837c6
:1036e800bd4680bd00879303801a06000040014153
:020000040000fa
:1036f80080b584b000af03463960fb800023fb60cf
:103708003b68bb60fb88002b02d04ff0ff333de0e5
:10371800fb888c2202fb03f31e4a1344fb60fb6800
:1037280000221a70fb685b78002b02d04ff0ff3341
:103738002ce0fb6801225a70fb6800225a60fb6883
:1037480000225a61bb681a68fb68da60fb68ba68cd
:103758003c33043292e8030083e80300bb68db686b
:103768001a46fb681a61bb681a69fb689a60fb68ad
:10377800db681b69fa68114607489847fb6800220e
:1037880083f84520fb6802221a70fb881846103718
:0c379800bd4680bdb4060020110c0000ee
:020000040000fa
:1037a40080b500af02f05cfd02f0acfc02f05ffdfe
:1037b40002f008fa00f062ff01f040fe02f0ecf9ba
:1037c4001f4b4122c3f8a42000bf1d4bd3f8a430e3
:1037d40003f04003402bf8d1194b4122c3f8dc20fd
:1037e40000bf174bd3f8dc3003f04003402bf8d173
:1037f400134b4122c3f8e02000bf114bd3f8e03053
:1038040003f04003402bf8d10d4b4122c3f814219f
:1038140000bf0b4bd3f8143103f04003402bf8d115
:10382400084b6ff07f421a61064b4cf2ff725a61eb
:10383400044b054a9a61034b08221a6200bf80bdfb
:0c384400001c00400008004056860100f7
:020000040000fa
:10385000882910b536d012dc812943d003dc8029b9
:1038600040d0002010bd82290ed08429f9d11968da
:1038700002b30a1d1a60b1f90020d3171ee0a02977
:103880002bd00bdc9029ecd11968073121f007010e
:1038900001f108021a60d1e900230fe0c02901d02c
:1038a000f029ded11a68111d196013680360002326
:1038b000436005e00a1d1a600a880023c0e900235e
:1038c0000120cfe7196822b10a1d1a6091f9002082
:1038d000d3e70a1d1a600a78efe71a68111d19600c
:1038e0001268cae719681ab10a1d1a600a68c4e7a3
:0c38f0000c1d1c600b68c0e90032e1e711
:020000040000fa
:1038fc0080b485b000af786039600023fb7300237f
:10390c00bb607b68002b3cd0214b1b7ddbb283f072
:10391c000103dbb2002b34d01d4a7b6813601c4ab8
:10392c003b6853601a4b01221a7516e0194b5b6801
:10393c0003f00703012b06d07a68bb6813441a788e
:10394c00144b9a6206e0bb685b007a6813441a88d1
:10395c00104b9a62bb680133bb600e4b1b7edbb213
:10396c0003f00103012b04d1094b5b68ba689a423e
:10397c00dcd3074abb689360064b01229a7501237e
:10398c00fb73fb7b18461437bd465df8047b704710
:08399c00d007002000200141ca
:020000040000fa
:1039a4002de9f041d2e900230c4686b007465fead0
:1039b400d37820684968a5680590e66841d05242ea
:1039c40063eb4303002908db20f002000590b8f103
:1039d400000f02d1059948072ad5691e05a802904f
:1039e4000a20cde90010204600f028fdb8f1000fb0
:1039f40002d1059b59071fd5b8f1000f00f1ff3024
:103a040014bf2d232b2333542269059b0093013ac1
:103a14002b46121a3118384600f01afc7b68db0575
:103a240003d563689842b8bf184606b0bde8f08174
:103a34000807d2d42946d1e71a07e5d5013820234f
:083a4400e1e70029c0dac5e743
:020000040000fa
:103a4c0080b586b000af03460a46fb8013467b71f7
:103a5c0000237b6100233b61fb88002b02d04ff0dd
:103a6c00ff3339e0fb888c2202fb03f31c4a13441e
:103a7c007b617b6993f90030022b05d17b695a6815
:103a8c007b699b689a4202d34ff0ff3324e078693c
:103a9c0000f0c2fef860fb68002b1bdb7b69196928
:103aac00fa6813465b001344db000b443b61fb8854
:103abc00dab23b691a737b695b685a1c7b695a6082
:103acc00fb88dbb2fa68d2b21146184602f020fa33
:103adc00034601e04ff0ff3318461837bd4680bd52
:043aec00b4060020fc
:020000040000fa
:103af00080b582b000af244b93f82c30dbb2002ba2
:103b00003ed0214b1a6a204bdb699a4238d21f4bb8
:103b10009b6afb801d4b5b6803f00703012b08d0f9
:103b2000194b9a69184b1b6a1344fa88d2b21a705f
:103b300007e0154b9a69144b1b6a5b001344fa8823
:103b40001a80114b1b6a01330f4a13620e4b1a6a1b
:103b50000d4bdb699a4213d10b4b002283f82c20ca
:103b6000094b0022da61094b84221a75064b5b6a05
:103b7000002b05d0044b5b6a034a926a10469847b3
:103b800000bf0837bd4680bdd0070020002001419e
:020000040000fa
:103b900080b487b000af786039607b68002b02d0ba
:103ba0003b68002b01d100233be03b681b781b03e3
:103bb0007b613b6801331b781b013b613b6802332f
:103bc0001b781b09dbb2fb607a693b691a43fb680f
:103bd0001a437b685a673b6803331b781b037b617e
:103be0003b6804331b781b013b613b6805331b7842
:103bf0001b09dbb2fb607a693b691a43fb681a4315
:103c00007b689a673b6806331b781b027b613b68c5
:103c100007331b783b617a693b691a437b68da6733
:0e3c2000012318461c37bd465df8047b704733
:020000040000fa
:023c2e007047dd
:020000040000fa
:103c300090b587b002af78600023fb607b68b3f17a
:103c4000ff3f01d100233ae0786800f0c1faf86044
:103c5000fb68002b03d0fb681b7b002b01d00023eb
:103c60002de0fb681b7b1a468c2303fb02f3164aec
:103c70001344bb60bb6801221a70bb68fa685a61c2
:103c8000bb68082283f84520bb68022283f84420e1
:103c9000bb68f72283f83820bb68db681c68bb6808
:103ca00093f83c3098b2bb6803f13801bb6803f16c
:103cb00018020823009313460122a0470123184647
:0c3cc0001437bd4690bd00bfb4060020c4
:020000040000fa
:103ccc0080b489b000af7860224b3b613b695b6b81
:103cdc00fb610023bb610023fb753b695b6bfb61e4
:103cec0004e0fb69bb61fb699b69fb61fb69002b11
:103cfc0003d0fa697b689a42f3d1fb69002b01d19e
:103d0c00fb7d21e07b689b69002b0ad07b689b685c
:103d1c00fb607b689b6999687b689b69fa680a44bd
:103d2c009a60bb69002b07d13b695b6b9a693b6955
:103d3c005a630123fb7503e07b689a69bb699a613e
:103d4c007b6800229a61fb7d18462437bd465df8de
:083d5c00047b70479007002072
:020000040000fa
:103d6400f0b587b000af78603960224b7b617b6926
:103d74005b6b3b610023fb607b695b689b699847d5
:103d840002467b695a617b695b69184601f000fc55
:103d9400f8607b69d3e90a12fb684ff00004cd1880
:103da40042eb04067b69c3e90a563b69002b12d037
:103db4007b6993f830300133dab27b6983f83020c1
:103dc400f86800f0bff97b6993f83030013bdab250
:103dd4007b6983f8302002f058fa0346fb72fef741
:103de400d3fdfb7a184602f07ff900bf1c37bd46ad
:083df400f0bd00bf90070020a4
:020000040000fa
:103dfc0080b400af204b214a1a601f4b4ff62202b1
:103e0c009a811d4b4ff440325a6000bf1a4bdb694c
:103e1c00002bfbd1184b1b68174a43f002031360ad
:103e2c0000bf154bdb69002bfbd1154b00229a61af
:103e3c00134b0022da61124b00221a62104b002243
:103e4c0083f82c200e4b00225a620d4b00221a6074
:103e5c000b4b00225a600a4b00229a60084b00223e
:103e6c001a75074b0022da60054b0022da8500bf79
:103e7c00bd465df8047b70470020014104011040f1
:043e8c00d00700203b
:020000040000fa
:103e900080b584b000af78600023bb600123fb7362
:103ea00000f0b0ff034683f00103dbb2002b01d02a
:103eb000fb7b2fe0786800f0d1ffb860bb68002b77
:103ec00025d0bb685b7883f00103dbb2002b1cd0ec
:103ed000bb689b68002b03d1bb685a68bb689a60bb
:103ee0000e4b93f83030002b03d1b86800f018f86f
:103ef00002e0b868fef792ffbb6800221a75bb6843
:103f000000225a75bb6801225a700023fb7301f02e
:103f100093fcfb7b18461037bd4680bd9007002000
:020000040000fa
:103f2000f0b587b000af78601f4b7b6100233b6129
:103f30000023fb737b695b689b69984702467b693a
:103f40005a617b695b69184601f024fb3861386966
:103f500000f05efb02f09bf90346bb737b69d3e97b
:103f60000a123b694ff00004cd1842eb04067b694e
:103f7000c3e90a56bb7b184602f0b8f87868fef72a
:103f80004dff0346fb73fb7b002b09d002f07ff94a
:103f90000346bb73fef7fafcbb7b184602f0a6f89b
:0c3fa00000bf1c37bd46f0bd900700209c
:020000040000fa
:103fac002de9ff41836946690093f61acde9016159
:103fbc0004461746039216444ff002086d464246db
:103fcc002946206801f085fdb04209d1d4e90232be
:103fdc00c4e905331a44a262384604b0bde8f08146
:103fec0000280dda6268002342f01002b8f1020fcb
:103ffc00a362c4e90533626015d06b68ff1aebe766
:10400c006b68984288bf0835a6eb000688bfc01abb
:10401c002b6803442b606b68a3eb000088bf08f18e
:0a402c00ff386860cbe71f46d6e7b7
:020000040000fa
:024036007047d1
:020000040000fa
:1040380080b400af1f4b4ff440021a611d4b05229c
:1040480083f856201b4b052283f85720194b222250
:1040580083f83b20174b012283f8d820154b012207
:1040680083f8d920134b332283f8bc20114b4ff42b
:104078008022c3f800210f4b002283f852210d4bf8
:10408800002283f839210b4b4ff44072c3f890217a
:10409800084b052283f8c821064b052283f8c9215d
:1040a800044b222283f8b42100bfbd465df8047b8f
:0840b800704700bf00800041c9
:020000040000fa
:1040c00080b582b000af1f4b3b603b685b6b7b6091
:1040d0002ee07b689b68002b2ed17b6801221a752d
:1040e0007b6801225a757b689b78002b09d17b681d
:1040f000db68002b05d07b68db69184600f0f6fa18
:1041000009e07868fff7e2fd7b689b78002b02d11d
:104110007b6800225a707b68db68002b05d07b68c7
:10412000db687a681269104698473b685b6b7b6076
:104130007b68002bcdd100e000bf00bf0837bd4633
:0841400080bd00bf90070020c4
:020000040000fa
:1041480080b584b000af7860786800f05dfafff75a
:10415800b3ff0023fb732de0fb7b1a4a5b0113447a
:1041680015331b78dbb2002b21d0fb7b154a5b0192
:104178001344153300221a70fb7b124a5b01134467
:1041880002331b78012b12d1fa7bfb7b0d495201bc
:104198000a44043212680b495b010b4408331a6065
:1041a800fb7b5b01074a13441846fef733fefb7b93
:1041b8000133fb73fb7b042bced900bf1037bd4600
:0841c80080bd00bf14060020b9
:020000040000fa
:1041d00080b485b000af78607b681b0afb607b68a9
:1041e000dbb2bb60fb68002b2ad1194afb688c212b
:1041f00001fb03f3134408331b68ba689a421fd2c9
:10420000134afb688c2101fb03f313441033196834
:10421000ba6813465b001344db000b441b78002b89
:104220000ed00b4afb688c2101fb03f313441033bf
:104230001968ba6813465b001344db000b4400e0c6
:10424000002318461437bd465df8047b704700bf55
:04425000b406002090
:020000040000fa
:104254002de9ff471d460c9b13f0010906468a46cb
:10426400144601d195420bd822465146304601f0fe
:104274008bfaa54204d82546284604b0bde8f08749
:104284002f1b102f3a464ff0200128bf10226846fa
:10429400b84601f0bdffb8f10f0f11d83b096ff01c
:1042a4000f0202fb03726946304601f06dfab9f160
:1042b400000fe1d122465146304601f065fadbe7b2
:1042c40010226946304601f05ffaa8f11008e2e7cf
:020000040000fa
:1042d400842910b523d00cdc812903d0822913d082
:1042e40080290bd119680c1d1c600b6803601a60cf
:1042f40013e0902921d003dc882917d0002010bdb9
:10430400a029efd0c029ece719680c1d1c600b68cc
:104314000360d1171046c3e900010120efe71968d3
:104324000c1d1c600b6803601a80f6e719680c1ded
:104334001c600b6803601a70efe719680c1d1c60a1
:0c43440009680160d317c1e90023e6e717
:020000040000fa
:1043500080b400af194b01221a6000bf174bdb6914
:10436000002bfbd1154b4ff480725a6000bf134bea
:10437000db69002bfbd1114b4322da600f4b104a53
:104380001a6000bf0d4bdb69002bfbd10b4b1022d9
:104390005a8300bf094bdb69002bfbd1094b00227c
:1043a00083f82120074b002283f82020034b83222f
:1043b0009a7500bfbd465df8047b7047004001411f
:0843c0001600100000080020a7
:020000040000fa
:1043c80080b400af194b01221a6000bf174bdb699c
:1043d800002bfbd1154b4ff480725a6000bf134b72
:1043e800db69002bfbd1114b4322da600f4b104adb
:1043f8001a6000bf0d4bdb69002bfbd10b4b102261
:104408005a8300bf094bdb69002bfbd1094b002203
:1044180083f82120074b002283f82020034b8322b6
:104428009a7500bfbd465df8047b7047000c0043d9
:08443800160010002c08002002
:020000040000fa
:104440002de9f84f04460c9f6668d4f80cb0246937
:1044500010463a68013c002502f0020a0b9a0bf85c
:104460000450002e1946b8bf0126012390464fea9a
:10447000e279002c03dcd3b12046bde8f88f50ea86
:10448000010209d1721b002a06dc0a9a521b002a7b
:10449000f1ddbaf1000feed042464b4601f038fb99
:1044a000013c134630320bf804200135e1e73b684c
:0844b00023f010033b60dfe77d
:020000040000fa
:1044b800f8b5846a05460f46164654b1ab6a6a6970
:1044c8009b1ab3420bd2324639462846fff76afd9b
:1044d800f8bd01f02dfe0028f0d02046f8e7002ea8
:1044e800f1d095f93430002b1bdbdbb23446621e69
:1044f800b95c994212d1224639462846fff752fd47
:10450800a042e5d32744341b22463946686901f0a6
:104518005bfe6b691c446c613046d9e71446002a7f
:06452800e5d13446f0e786
:020000040000fa
:10452e00f0b50c4649682368a768e56887b000298e
:10453e000593a4bf23f00203059305ab0293082352
:10454e00cde900730646d2e900232046fff771ff3e
:10455e00059bd90642bf00f1ff3030232b54059b3b
:10456e001a0742bf00f1ff3020232b542269059b0e
:10457e000093013a3b46121a29183046fff763fea4
:10458e007368db0503d563689842b8bf184607b059
:02459e00f0bd6e
:020000040000fa
:1045a00080b584b000afb9607a603b600346fb81a0
:1045b000164b93f820305bb2002b01d0002320e093
:1045c000124afb899380114a3b68d3600f4abb694a
:1045d00053610e4abb6893600c4a7b6813610b4ab7
:1045e0003b7f9370094a97f820301370074b0022e5
:1045f00083f821203a7ffb891146184600f008fd18
:10460000012318461037bd4680bd00bf00080020ba
:020000040000fa
:1046100080b485b000af7860184bbb600023fb60ae
:10462000bb685b6bfb6018e0fb689b687a689a422a
:1046300008d8fb689a687b68d21afb689a600023e6
:104640007b6007e0fb689b687a68d31a7b60fb6835
:1046500000229a60fb689b69fb60fb68002b02d01c
:104660007b68002be0d1bb685a69bb681a6100bf48
:104670001437bd465df8047b704700bf90070020eb
:020000040000fa
:1046800080b400af174b4222c3f8842000bf154b03
:10469000d3f8843003f04003402bf8d1124b0022b2
:1046a0009a63114b77225a6300bf0f4bdb6b03f009
:1046b0000403042bf9d00c4b022283f8302000bff6
:1046c000094bdb6b03f00203022bf9d000bf064b52
:1046d0001b6c03f00303032bf9d100bfbd465df84b
:0c46e000047b7047001c004000100040ec
:020000040000fa
:1046ec0080b584b000af78600023bb600123fb73fe
:1046fc0000f082fb034683f00103dbb2002b01d0f8
:10470c00fb7b1ee0786800f0a3fbb860bb68002b55
:10471c0014d0bb685b78002b05d0b868fff7d0fad3
:10472c00bb6800225a70bb6800221a75bb68002255
:10473c005a75bb6800221a700023fb7301f076f8df
:0a474c00fb7b18461037bd4680bd08
:020000040000fa
:1047580080b584b000af786039600023fb737b6854
:10476800002b1fd0124b93f82c30dbb283f00103df
:10477800dbb2002b16d000f0c3fc0d4a7b689361b6
:104788000b4a3b68d3610a4b00221a62084b01228c
:1047980083f82c20064b0022da850123fb73054b96
:1047a80084229a75fb7b18461037bd4680bd00bf32
:0847b800d007002000200141a0
:020000040000fa
:1047c00080b582b000af786001f020fc01f028fadb
:1047d000fff732fcfef7e6fffff710fbfff7b8fd2f
:1047e00001f04efdfff7f0fd00f0faf90a49002054
:1047f000fef782ff0246094b9a600949002000f04b
:1048000003f90246054b1a6001f0e0fbfef77efc5f
:1048100000bf0837bd4680bd806100008c080020c5
:04482000c46200006e
:020000040000fa
:1048240080b485b000af78600023fb601ce07b6837
:104834001969fa6813465b001344db000b441b78c8
:1048440083f00103dbb2002b0bd07b681969fa6893
:1048540013465b001344db000b4401221a70fb680f
:1048640009e0fb680133fb607b689a68fb689a4245
:10487400ddd84ff0ff3318461437bd465df8047b8e
:0248840070477b
:020000040000fa
:1048860090b585b002af78600b46fb701346bb70df
:104896007b68002b20d07b6800225a617b6802224d
:1048a60083f844207b6801221a707b68fa7883f8c3
:1048b60038207b68db681c687b6893f83c3098b2cc
:1048c6007b6803f138017b6803f11802bb7800931b
:1048d60013460122a04700e000bf0c37bd4690bd3d
:020000040000fa
:1048e80080b584b000af786039600023fb607b68d6
:1048f800b3f1ff3f01d100231be07868fff764fca8
:10490800f860fb68002b03d0fb681b7b002b01d0f1
:1049180000230ee0fb681b7b1a468c2303fb02f383
:10492800064a1344bb60bb68d3f884203b681a600e
:10493800012318461037bd4680bd00bfb4060020cd
:020000040000fa
:1049480080b584b000af786039600023fb607b6875
:10495800b3f1ff3f01d100231be07868fff734fc77
:10496800f860fb68002b03d0fb681b7b002b01d091
:1049780000230ee0fb681b7b1a468c2303fb02f323
:10498800064a1344bb60bb68d3f880203b681a60b2
:10499800002318461037bd4680bd00bfb40600206e
:020000040000fa
:1049a80080b584b000af786039600023fb607b6815
:1049b800b3f1ff3f01d100231be07868fff704fc47
:1049c800f860fb68002b03d0fb681b7b002b01d031
:1049d80000230ee0fb681b7b1a468c2303fb02f3c3
:1049e800064a1344bb60bb68d3f888203b681a604a
:1049f800002318461037bd4680bd00bfb40600200e
:020000040000fa
:104a080080b584b000af03463960fb803b68002b5b
:104a180002d0fb88002b02d04ff0ff3316e00d4b7d
:104a2800fb60fb6801221a700123012b02d04ff0b2
:104a3800ff330be03868fef7cbfca02200210648c4
:104a480001f0e4fb054b02221a70044b184610379c
:104a5800bd4680bdc807002014060020900700202e
:020000040000fa
:104a680070b5144b144a0021934206d3134a00250b
:104a7800d2e9003123b919b970bd03f8011bf3e776
:104a8800946858180c3294b11446834208d111f036
:104a9800030318bf012303eb910102eb8102e7e74f
:104aa80014f8016b03f8016befe703f8015b83422d
:104ab800fbd1dde70000002000000020c41d00003d
:020000040000fa
:104ac8007fb5c36800911546002b18bf013a0192c3
:104ad80082680446cde902230e4602226946006830
:104ae80000f0c9ff002808dc00f0180383f0080272
:104af80063681343636005460fe0019a8242fad265
:104b0800a368e363801ae268184420642ab15a1c37
:104b1800e2632e441b7806f8013c284604b070bdb9
:020000040000fa
:104b280080b483b000af03460a46fb8013467b710e
:104b38007b79002b04d00f4b032283f8202003e05d
:104b48000c4b042283f82020fb885b007a79002a2a
:104b580001d0012200e00022074913434b6200bf45
:104b6800054bdb69002bfbd100bf0c37bd465df858
:0c4b7800047b7047000800200040014151
:020000040000fa
:104b840080b483b000af03460a46fb8013467b71b2
:104b94007b79002b04d00f4b032283f8202003e001
:104ba4000c4b042283f82020fb885b007a79002ace
:104bb40001d0012200e00022074913434b6200bfe9
:104bc400054bdb69002bfbd100bf0c37bd465df8fc
:0c4bd400047b70472c080020000c0043fc
:020000040000fa
:104be00080b400af134b01221a6000bf114b1b6948
:104bf00003f00103012bf9d00e4b4ff4c3621a608e
:104c00000c4b03221a730b4bea22da61094b332255
:104c10009a72094b00221a60064b20225a7200bf7a
:104c2000044b1b69002bfbd100bfbd465df8047b24
:0c4c3000704700bf00380040a4080020be
:020000040000fa
:104c3c000e4a38b5002313600d4a0e4c13600e4a11
:104c4c000e4d13600e4a13600e4a13600e4a5362e7
:104c5c0013610123936001f0e7fafef752f8ac42be
:104c6c0000d338bd54f8043b9847f8e7b808002047
:104c7c004c0700207002000048070020740200005e
:0c4c8c00400700204407002050070020d3
:020000040000fa
:104c980020212223242425252626272728282828ba
:104ca800292929292a2a2a2a2b2b2b2b2c2c2c2c54
:104cb8002c2c2c2c2d2d2d2d2d2d2d2d2e2e2e2e1c
:104cc8002e2e2e2e2f2f2f2f2f2f2f2f0001170292
:104cd8001d1813031e1b190b1408040d1f161c1294
:0c4ce8001a0a070c1511090610050f0e22
:020000040000fa
:104cf40038b50d46044608b9002038bd43689b0604
:104d040007d5d0e905239a4216d80023c4e9053310
:104d1400a362d4e90f13994204d20122c91a20686c
:104d240001f0fafa0023c4e90f33002de4d020681f
:104d3400bde8384001f0edba0022c36a1146984735
:0c4d44006369002be1d14ff0ff30d6e78f
:020000040000fa
:104d500080b588b002aff860b9607a60fb704ff040
:104d6000ff337b61fb78002b04d1fb68002b01d162
:104d70007b6916e07b68002b12d0786800f0f6faa9
:104d80000146fb780093bb68fa680020fef7c6f87e
:104d900078617b69b3f1ff3f02d07869fff778f85b
:0a4da0007b6918461837bd4680bd38
:020000040000fa
:104dac0080b582b000af0023fb80114b5b8b9bb2b4
:104dbc0003f00703fb80fb88002b15d00d4afb8802
:104dcc00d38500f09bf90a4b84221a75094b0022fb
:104ddc0083f82c20074b5b6a002b05d0054b5b6ad4
:104dec00044a926a1046984700bf0837bd4680bdfa
:084dfc0000200141d007002056
:020000040000fa
:104e040080b582b000af124b93f83030002b1ad12a
:104e1400104b7b604ff6ff737b807b681b78012b04
:104e240004d17b6800221a70012300e00023012bc7
:104e340007d1074bb3f90830184600f043fb0123b0
:104e440002e0002300e0012318460837bd4680bd78
:084e540090070020c8070020b0
:020000040000fa
:104e5c0080b485b000af78600023fb607b68b3f151
:104e6c00ff3f17d07b68002b14d07b689bb2042bc0
:104e7c0010d87b689bb25b010a4a1344fb60fb6849
:104e8c00db697a689a4205d1fb681b78002b01d04c
:104e9c00fb6800e0002318461437bd465df8047b20
:084eac00704700bf140600204e
:020000040000fa
:104eb40070b5d0e90245a54217d10122a1f1200322
:104ec400c1f1200622fa06f602fa03f333438a40bc
:104ed400db43d6431ab10b490a6832400a605a1cb4
:104ee4001fbf084a51680b4053604368ac6043f0ed
:104ef400010223f00103e5604260c25842f001025e
:084f0400c25070bd080400203a
:020000040000fa
:104f0c002de9ff41134dd1f80080af88adf80c703e
:104f1c0006462868029002aca8798df80e00002a8b
:104f2c0018bf1446d1e901571a461bb9204601f0a7
:104f3c0073f90246002d02dbaa4228bf2a46cdf89f
:104f4c0000803b4621463046fff77ef904b0bde8b1
:084f5c00f08100bfe4620000d7
:020000040000fa
:104f6400f0b50c4649682368a668e76887b000294d
:104f74000593a4bf23f00203059305ab02930a2310
:104f8400cde900630546d2e900232046fff756fa2f
:104f94002269059b0093013a3346121a39182846b0
:104fa400fff756f96b68db0503d563689842b8bf11
:064fb400184607b0f0bd35
:020000040000fa
:104fbc0080b483b000af03463960fb80b7f906308c
:104fcc00002b0adb3b68dab20c49b7f90630520108
:104fdc00d2b20b4483f800230ae03b68dab20849ea
:104fec00fb8803f00f03043b5201d2b20b441a7638
:104ffc0000bf0c37bd465df8047b704700e100e054
:04500c0000ed00e0d3
:020000040000fa
:1050100080b582b000af03460a46fb8013467b7121
:105020000e4b00229a610d4b0022da610c4b832259
:105030001a760b4b5b680a4a23f48023536000bf47
:10504000074bdb69002bfbd17a79fb8811461846a8
:10505000fff76afd00bf0837bd4680bd000800208d
:0450600000400141ca
:020000040000fa
:1050640080b582b000af03460a46fb8013467b71cd
:105074000e4b00229a610d4b0022da610c4b832205
:105084001a760b4b5b680a4a23f48023536000bff3
:10509400074bdb69002bfbd17a79fb881146184654
:1050a400fff76efd00bf0837bd4680bd2c08002009
:0450b400000c0043a9
:020000040000fa
:1050b80080b485b000af0346fb800023fb60fb880b
:1050c800002b02d04ff0ff3311e0fb888c2202fb4b
:1050d80003f30a4a1344fb60fb6893f84530dbb2dc
:1050e800092b01d0012302e0fb6893f90030184630
:1050f8001437bd465df8047b704700bfb406002036
:020000040000fa
:1051080080b483b000af0023fb71104b5b8b9bb264
:1051180003f00703bb80bb88002b10d00b4b802209
:105128001a760a4b07225a8302e0084b9b6afb71e6
:10513800064b1b7edbb203f00403042bf5d000bf43
:105148000c37bd465df8047b704700bf0020014165
:020000040000fa
:1051580008b50c4b98470c4b984700f0d3f900f072
:105168004bfbfbf78ff8094b23f07f03084a93604a
:10517800084b9847084b9847084b984701f036f872
:10518800fee700bfc31d0000c31d000000000000b3
:1051980000ed00e03d4c0000c31d0000c31d0000f1
:020000040000fa
:1051a80013b5836a8df80710044673b16369a26a60
:1051b800934212d3e36a01220df107012046984772
:1051c800012806d19df8070005e000f0b1ff00288e
:1051d800ecd04ff0ff3002b010bd9df8070094f9f5
:0e51e80034209042e6d05a1c62611870f3e742
:020000040000fa
:1051f80080b582b000af0f4b5b7adbb2002b14d0c6
:105208000c4b9b7adbb27b600a4b33229a727b6829
:10521800002b0ad0084b1b68002b06d0064b1b68d6
:10522800054a526811467868984700bf0837bd4656
:0c52380080bd00bf00380040a40800202a
:020000040000fa
:10524400022a70b5044616461d461ad043689b06ca
:1052540017d441b9002d08bf4ff4806505f108004b
:10526400fcf7aaff01466368012e43f02003636044
:10527400c4e9021514bfff230a2384f83430024b17
:0c528400e362002070bd00bfb9440000d0
:020000040000fa
:10529000c1f30a5340f21e42d21a0edd202a0ad868
:1052a000cb0243ea505040f00040d04090eae17019
:1052b000b0ebe1707047002070474b00004218bf10
:1052c00043f0010313f5001f88bf21f0004111f0e6
:0a52d000004058bf6ff00040704727
:020000040000fa
:1052da0010b590f948305a1e134380f84830d0e987
:1052ea0005239a42044603d90022c36a1146984705
:1052fa0060680023a362c4e90533830755bfd4e974
:10530a00023240f010009b18606056bfc4e90f33a8
:0a531a004ff0ff3040f3c00010bd5b
:020000040000fa
:1053240080b485b000af78607b6803f00703fb604e
:105334000c4bdb68bb60ba684ff6ff031340bb60dd
:10534400fb681a02bb68134343f0bf6343f40033a2
:10535400bb60044abb68d36000bf1437bd465df828
:08536400047b704700ed00e03e
:020000040000fa
:10536c00b0b582b000af78607b6819464ff0000290
:10537c000c4bdb684ff0000403fb02f501fb04f05f
:10538c000544a1fb03016b1819464ff47a724ff0d8
:10539c00000300f0b7fb03460c4618460837bd4621
:0853ac00b0bd00bf9007002016
:020000040000fa
:1053b40080b586b000aff860b9607a6000237b6185
:1053c4000023fb74fb68002b10d17b68002b0dd0ed
:1053d4000121b868fff7bef90346fb74fb7c83f038
:1053e4000103dbb2002bf3d101237b617b691846f7
:0653f4001837bd4680bd24
:020000040000fa
:1053fa0010b50278202a034600f10100f9d0a2f183
:10540a0009010429f5d92b2a07d02d2a11d1012106
:10541a000133013b00200a2403e00021f8e760433e
:10542a00801a13f8012f303a092af8d901b94042f3
:06543a0010bd0021ede7aa
:020000040000fa
:1054400080b400af0c4b01225a7100bf0a4bdb78cd
:10545000dbb203f00103012bf8d1084b084a1a62b2
:1054600000bf064b5b6803f00403042bf9d000bfb8
:10547000bd465df8047b704700080040001c0040fa
:04548000070101001f
:020000040000fa
:1054840080b483b000af0346fb80b7f90630002b2d
:1054940010dbfb8803f01f020949b7f906305b09ea
:1054a400012000fa02f2203341f82320bff34f8f8a
:1054b400bff36f8f00bf0c37bd465df8047b7047a8
:0454c40000e100e023
:020000040000fa
:1054c80080b584b000af0346fb8000f0dcfe0346e5
:1054d800fb73b7f90630184600f09af80346002b1c
:1054e80014bf01230023bb73b7f906301846fff732
:1054f800c5fffb7b184600f0f5fdbb7b184610374f
:04550800bd4680bd5f
:020000040000fa
:10550c0080b483b000afeff310833b603b687b60eb
:10551c0072b60b4bd3f88830094a43f47003c2f8c7
:10552c008830bff34f8fbff36f8f7b68002b00d198
:10553c0062b600bf0c37bd465df8047b704700bff8
:04554c0000ed00e08e
:020000040000fa
:1055500080b400af0e4b5b79dbb20d4a63f07f0382
:10556000dbb2537100bf0a4b1b6903f00403042b29
:10557000f9d000bf064b5b79dbb203f0e003002bf0
:10558000f8d1034b5b691846bd465df8047b704754
:04559000003800409f
:020000040000fa
:1055940080b487b000af78600d4b3b6100237b6122
:1055a4003b691b69fb607a68fb689a4204d97a6894
:1055b400fb68d31a7b6103e07a68fb68d31a7b61ca
:1055c4007b6918461c37bd465df8047b704700bff5
:0455d400900700201c
:020000040000fa
:1055d80010b5054c227832b9044b13b10448aff327
:1055e80000800123237010bd58080020000000002f
:1055f8000000000008b5034b1bb103490348aff393
:10560800008008bd000000005c08002000000000c9
:020000040000fa
:1056180080b483b000af0346fb80b7f90630002b97
:105628000ddb0a4ab7f906305b0952f82320fb88dc
:1056380003f01f0322fa03f303f0010300e0002341
:1056480018460c37bd465df8047b704700e100e062
:020000040000fa
:105658000c4a036810b5546a0b4a591e121b8a4239
:105668000ad22bb1094b0c221a604ff0ff3010bd43
:10567800102202600020fae7173323f00f030360bb
:10568800f8e700bf50070020efffff7fbc080020ad
:020000040000fa
:1056980010b44c68a40602460b4603d45df8044bcc
:1056a80000f0e2b891f93410c0b2814203d05969d0
:1056b8009c6aa14205d3114618465df8044bfff7d2
:0e56c8006fbd4c1c5c610a705df8044b7047ae
:020000040000fa
:1056d80080b483b000af0346fb80b7f90630002bd7
:1056e8000bdbfb8803f01f020749b7f906305b099b
:1056f800012000fa02f241f8232000bf0c37bd4612
:105708005df8047b704700bf00e100e080b483b01f
:1057180000af0346fb80b7f90630002b0bdbfb8894
:1057280003f01f020749b7f906305b09012000faa8
:1057380002f241f8232000bf0c37bd465df8047b18
:08574800704700bf00e100e022
:020000040000fa
:105750004ff4001c1ceb410f98bf1ceb430f11d8fa
